:100000000C942A000C9434000C9434000C943400AA
:100010000C9434000C9434000C9434000C94340090
:100020000C9434000C9434000C9434000C94340080
:100030000C9434000C9434000C9434000C94340070
:100040000C9434000C9434000C9434000C94340060
:100050000C94340011241FBECFE5D8E0DEBFCDBF25
:100060000E9436000C948D000C94000084B38760CD
:1000700084BB81B3826081BB20E030E01BC045B30C
:1000800081E090E0022E02C0880F991F0A94E2F7E7
:10009000942F982B95BB4FE956E861E041505040B2
:1000A0006040E1F700C0000095B38095892385BBCF
:1000B0002F5F3F4F2330310514F321E030E01BC0A8
:1000C00045B381E090E0022E02C0880F991F0A9488
:1000D000E2F7942F982B95BB4FE956E861E0415029
:1000E00050406040E1F700C0000095B3809589233F
:1000F00085BB2150310933231CF782B3826082BB58
:100100008FE39DE023E0815090402040E1F700C064
:0E011000000082B38D7F82BBAFCFF894FFCF8B
:00000001FF
