S011000037205365676D656E742E73726563E9
S11300000C942A000C943F000C943F000C943F0085
S11300100C943F000C943F000C943F000C943F0060
S11300200C943F000C943F000C943F000C943F0050
S11300300C943F000C943F000C943F000C943F0040
S11300400C943F000C943F000C943F000C943F0030
S11300500C943F0011241FBECFE5D8E0DEBFCDBF16
S113006010E0A0E6B0E0EAE2F1E002C005900D92F3
S1130070A437B107D9F70E9441000C9493000C9463
S11300800000CF93DF93CDB7DEB764970FB6F89433
S1130090DEBF0FBECDBF8FEF8ABB84B3806484BB49
S11300A081B3837F81BB82B38C6082BB20E030E06C
S11300B082990BC087EA91E60197F1F700C000002E
S11300C02930310514F42F5F3F4F83990BC087EA21
S11300D091E60197F1F700C000001216130614F41C
S11300E02150310985B3806485BB84E1E0E6F0E00A
S11300F0DE01119601900D928A95E1F7F901EE0F58
S1130100FF1F81E090E08C0F9D1FE80FF91F808195
S11301108BBB89E79FE30197F1F700C0000085B32B
S10D01208F7B85BBC5CFF894FFCF99
S113012A3F0006005B004F0066006D007D0007007B
S107013A7F006F00CF
S9030000FC
