S01400004C65647320436F6E74726F6C2E7372656387
S11300000C942A000C9434000C9434000C943400A6
S11300100C9434000C9434000C9434000C9434008C
S11300200C9434000C9434000C9434000C9434007C
S11300300C9434000C9434000C9434000C9434006C
S11300400C9434000C9434000C9434000C9434005C
S11300500C94340011241FBECFE5D8E0DEBFCDBF21
S11300600E9436000C944C000C94000017BA8FEFD9
S113007084BBB09B04C085B3816085BB03C085B3DA
S11300808E7F85BBB19B04C085B3826085BBF1CFF5
S10F009085B38D7F85BBEDCFF894FFCFC6
S9030000FC
